{
  "_format": "hh3-artifact-1",
  "contractName": "EVoting",
  "sourceName": "contracts/EVoting.sol",
  "abi": [
    {
      "inputs": [
        {
          "internalType": "address",
          "name": "_verifier",
          "type": "address"
        }
      ],
      "stateMutability": "nonpayable",
      "type": "constructor"
    },
    {
      "anonymous": false,
      "inputs": [
        {
          "indexed": true,
          "internalType": "address",
          "name": "voter",
          "type": "address"
        },
        {
          "indexed": true,
          "internalType": "uint256",
          "name": "candidateIndex",
          "type": "uint256"
        }
      ],
      "name": "VoteCast",
      "type": "event"
    },
    {
      "inputs": [
        {
          "internalType": "uint256",
          "name": "",
          "type": "uint256"
        }
      ],
      "name": "candidates",
      "outputs": [
        {
          "internalType": "string",
          "name": "name",
          "type": "string"
        },
        {
          "internalType": "uint256",
          "name": "voteCount",
          "type": "uint256"
        }
      ],
      "stateMutability": "view",
      "type": "function"
    },
    {
      "inputs": [],
      "name": "getCandidates",
      "outputs": [
        {
          "components": [
            {
              "internalType": "string",
              "name": "name",
              "type": "string"
            },
            {
              "internalType": "uint256",
              "name": "voteCount",
              "type": "uint256"
            }
          ],
          "internalType": "struct EVoting.Candidate[]",
          "name": "",
          "type": "tuple[]"
        }
      ],
      "stateMutability": "view",
      "type": "function"
    },
    {
      "inputs": [
        {
          "internalType": "uint256",
          "name": "candidateIndex",
          "type": "uint256"
        }
      ],
      "name": "getVoteCount",
      "outputs": [
        {
          "internalType": "uint256",
          "name": "",
          "type": "uint256"
        }
      ],
      "stateMutability": "view",
      "type": "function"
    },
    {
      "inputs": [
        {
          "internalType": "address",
          "name": "",
          "type": "address"
        }
      ],
      "name": "hasVoted",
      "outputs": [
        {
          "internalType": "bool",
          "name": "",
          "type": "bool"
        }
      ],
      "stateMutability": "view",
      "type": "function"
    },
    {
      "inputs": [],
      "name": "verifier",
      "outputs": [
        {
          "internalType": "contract Groth16Verifier",
          "name": "",
          "type": "address"
        }
      ],
      "stateMutability": "view",
      "type": "function"
    },
    {
      "inputs": [
        {
          "internalType": "uint256",
          "name": "candidateIndex",
          "type": "uint256"
        },
        {
          "internalType": "uint256[2]",
          "name": "a",
          "type": "uint256[2]"
        },
        {
          "internalType": "uint256[2][2]",
          "name": "b",
          "type": "uint256[2][2]"
        },
        {
          "internalType": "uint256[2]",
          "name": "c",
          "type": "uint256[2]"
        },
        {
          "internalType": "uint256[1]",
          "name": "input",
          "type": "uint256[1]"
        }
      ],
      "name": "vote",
      "outputs": [],
      "stateMutability": "nonpayable",
      "type": "function"
    }
  ],
  "bytecode": "0x608060405234801561000f575f5ffd5b506040516118f83803806118f88339818101604052810190610031919061028b565b8060025f6101000a81548173ffffffffffffffffffffffffffffffffffffffff021916908373ffffffffffffffffffffffffffffffffffffffff160217905550600160405180604001604052806040518060400160405280600581526020017f416c69636500000000000000000000000000000000000000000000000000000081525081526020015f815250908060018154018082558091505060019003905f5260205f2090600202015f909190919091505f820151815f0190816100f691906104f3565b50602082015181600101555050600160405180604001604052806040518060400160405280600381526020017f426f62000000000000000000000000000000000000000000000000000000000081525081526020015f815250908060018154018082558091505060019003905f5260205f2090600202015f909190919091505f820151815f01908161018891906104f3565b50602082015181600101555050600160405180604001604052806040518060400160405280600781526020017f436861726c69650000000000000000000000000000000000000000000000000081525081526020015f815250908060018154018082558091505060019003905f5260205f2090600202015f909190919091505f820151815f01908161021a91906104f3565b50602082015181600101555050506105c2565b5f5ffd5b5f73ffffffffffffffffffffffffffffffffffffffff82169050919050565b5f61025a82610231565b9050919050565b61026a81610250565b8114610274575f5ffd5b50565b5f8151905061028581610261565b92915050565b5f602082840312156102a05761029f61022d565b5b5f6102ad84828501610277565b91505092915050565b5f81519050919050565b7f4e487b71000000000000000000000000000000000000000000000000000000005f52604160045260245ffd5b7f4e487b71000000000000000000000000000000000000000000000000000000005f52602260045260245ffd5b5f600282049050600182168061033157607f821691505b602082108103610344576103436102ed565b5b50919050565b5f819050815f5260205f209050919050565b5f6020601f8301049050919050565b5f82821b905092915050565b5f600883026103a67fffffffffffffffffffffffffffffffffffffffffffffffffffffffffffffffff8261036b565b6103b0868361036b565b95508019841693508086168417925050509392505050565b5f819050919050565b5f819050919050565b5f6103f46103ef6103ea846103c8565b6103d1565b6103c8565b9050919050565b5f819050919050565b61040d836103da565b610421610419826103fb565b848454610377565b825550505050565b5f5f905090565b610438610429565b610443818484610404565b505050565b5b818110156104665761045b5f82610430565b600181019050610449565b5050565b601f8211156104ab5761047c8161034a565b6104858461035c565b81016020851015610494578190505b6104a86104a08561035c565b830182610448565b50505b505050565b5f82821c905092915050565b5f6104cb5f19846008026104b0565b1980831691505092915050565b5f6104e383836104bc565b9150826002028217905092915050565b6104fc826102b6565b67ffffffffffffffff811115610515576105146102c0565b5b61051f825461031a565b61052a82828561046a565b5f60209050601f83116001811461055b575f8415610549578287015190505b61055385826104d8565b8655506105ba565b601f1984166105698661034a565b5f5b828110156105905784890151825560018201915060208501945060208101905061056b565b868310156105ad57848901516105a9601f8916826104bc565b8355505b6001600288020188555050505b505050505050565b611329806105cf5f395ff3fe608060405234801561000f575f5ffd5b5060043610610060575f3560e01c806306a49fce1461006457806309eef43e146100825780632b7ac3f3146100b25780633477ee2e146100d0578063678abe4214610101578063b2c2f2e81461011d575b5f5ffd5b61006c61014d565b604051610079919061080d565b60405180910390f35b61009c60048036038101906100979190610894565b610242565b6040516100a991906108d9565b60405180910390f35b6100ba61025e565b6040516100c7919061094d565b60405180910390f35b6100ea60048036038101906100e59190610990565b610283565b6040516100f8929190610a12565b60405180910390f35b61011b60048036038101906101169190610cca565b610338565b005b61013760048036038101906101329190610990565b61061d565b6040516101449190610d43565b60405180910390f35b60606001805480602002602001604051908101604052809291908181526020015f905b82821015610239578382905f5260205f2090600202016040518060400160405290815f820180546101a090610d89565b80601f01602080910402602001604051908101604052809291908181526020018280546101cc90610d89565b80156102175780601f106101ee57610100808354040283529160200191610217565b820191905f5260205f20905b8154815290600101906020018083116101fa57829003601f168201915b5050505050815260200160018201548152505081526020019060010190610170565b50505050905090565b5f602052805f5260405f205f915054906101000a900460ff1681565b60025f9054906101000a900473ffffffffffffffffffffffffffffffffffffffff1681565b60018181548110610292575f80fd5b905f5260205f2090600202015f91509050805f0180546102b190610d89565b80601f01602080910402602001604051908101604052809291908181526020018280546102dd90610d89565b80156103285780601f106102ff57610100808354040283529160200191610328565b820191905f5260205f20905b81548152906001019060200180831161030b57829003601f168201915b5050505050908060010154905082565b600180549050851061037f576040517f08c379a000000000000000000000000000000000000000000000000000000000815260040161037690610e03565b60405180910390fd5b5f5f3373ffffffffffffffffffffffffffffffffffffffff1673ffffffffffffffffffffffffffffffffffffffff1681526020019081526020015f205f9054906101000a900460ff1615610408576040517f08c379a00000000000000000000000000000000000000000000000000000000081526004016103ff90610e6b565b60405180910390fd5b5f60025f9054906101000a900473ffffffffffffffffffffffffffffffffffffffff1673ffffffffffffffffffffffffffffffffffffffff166343753b4d868686866040518563ffffffff1660e01b81526004016104699493929190611094565b602060405180830381865afa158015610484573d5f5f3e3d5ffd5b505050506040513d601f19601f820116820180604052508101906104a89190611103565b9050806104ea576040517f08c379a00000000000000000000000000000000000000000000000000000000081526004016104e190611178565b60405180910390fd5b6001825f600181106104ff576104fe611196565b5b602002015114610544576040517f08c379a000000000000000000000000000000000000000000000000000000000815260040161053b9061120d565b60405180910390fd5b600180878154811061055957610558611196565b5b905f5260205f2090600202016001015f8282546105769190611258565b9250508190555060015f5f3373ffffffffffffffffffffffffffffffffffffffff1673ffffffffffffffffffffffffffffffffffffffff1681526020019081526020015f205f6101000a81548160ff021916908315150217905550853373ffffffffffffffffffffffffffffffffffffffff167fa36cc2bebb74db33e9f88110a07ef56e1b31b24b4c4f51b54b1664266e29f45b60405160405180910390a3505050505050565b5f6001805490508210610665576040517f08c379a000000000000000000000000000000000000000000000000000000000815260040161065c906112d5565b60405180910390fd5b6001828154811061067957610678611196565b5b905f5260205f209060020201600101549050919050565b5f81519050919050565b5f82825260208201905092915050565b5f819050602082019050919050565b5f81519050919050565b5f82825260208201905092915050565b8281835e5f83830152505050565b5f601f19601f8301169050919050565b5f6106fb826106b9565b61070581856106c3565b93506107158185602086016106d3565b61071e816106e1565b840191505092915050565b5f819050919050565b61073b81610729565b82525050565b5f604083015f8301518482035f86015261075b82826106f1565b91505060208301516107706020860182610732565b508091505092915050565b5f6107868383610741565b905092915050565b5f602082019050919050565b5f6107a482610690565b6107ae818561069a565b9350836020820285016107c0856106aa565b805f5b858110156107fb57848403895281516107dc858261077b565b94506107e78361078e565b925060208a019950506001810190506107c3565b50829750879550505050505092915050565b5f6020820190508181035f830152610825818461079a565b905092915050565b5f604051905090565b5f5ffd5b5f73ffffffffffffffffffffffffffffffffffffffff82169050919050565b5f6108638261083a565b9050919050565b61087381610859565b811461087d575f5ffd5b50565b5f8135905061088e8161086a565b92915050565b5f602082840312156108a9576108a8610836565b5b5f6108b684828501610880565b91505092915050565b5f8115159050919050565b6108d3816108bf565b82525050565b5f6020820190506108ec5f8301846108ca565b92915050565b5f819050919050565b5f61091561091061090b8461083a565b6108f2565b61083a565b9050919050565b5f610926826108fb565b9050919050565b5f6109378261091c565b9050919050565b6109478161092d565b82525050565b5f6020820190506109605f83018461093e565b92915050565b61096f81610729565b8114610979575f5ffd5b50565b5f8135905061098a81610966565b92915050565b5f602082840312156109a5576109a4610836565b5b5f6109b28482850161097c565b91505092915050565b5f82825260208201905092915050565b5f6109d5826106b9565b6109df81856109bb565b93506109ef8185602086016106d3565b6109f8816106e1565b840191505092915050565b610a0c81610729565b82525050565b5f6040820190508181035f830152610a2a81856109cb565b9050610a396020830184610a03565b9392505050565b5f5ffd5b7f4e487b71000000000000000000000000000000000000000000000000000000005f52604160045260245ffd5b610a7a826106e1565b810181811067ffffffffffffffff82111715610a9957610a98610a44565b5b80604052505050565b5f610aab61082d565b9050610ab78282610a71565b919050565b5f67ffffffffffffffff821115610ad657610ad5610a44565b5b602082029050919050565b5f5ffd5b5f610af7610af284610abc565b610aa2565b90508060208402830185811115610b1157610b10610ae1565b5b835b81811015610b3a5780610b26888261097c565b845260208401935050602081019050610b13565b5050509392505050565b5f82601f830112610b5857610b57610a40565b5b6002610b65848285610ae5565b91505092915050565b5f67ffffffffffffffff821115610b8857610b87610a44565b5b602082029050919050565b5f610ba5610ba084610b6e565b610aa2565b90508060408402830185811115610bbf57610bbe610ae1565b5b835b81811015610be85780610bd48882610b44565b845260208401935050604081019050610bc1565b5050509392505050565b5f82601f830112610c0657610c05610a40565b5b6002610c13848285610b93565b91505092915050565b5f67ffffffffffffffff821115610c3657610c35610a44565b5b602082029050919050565b5f610c53610c4e84610c1c565b610aa2565b90508060208402830185811115610c6d57610c6c610ae1565b5b835b81811015610c965780610c82888261097c565b845260208401935050602081019050610c6f565b5050509392505050565b5f82601f830112610cb457610cb3610a40565b5b6001610cc1848285610c41565b91505092915050565b5f5f5f5f5f6101408688031215610ce457610ce3610836565b5b5f610cf18882890161097c565b9550506020610d0288828901610b44565b9450506060610d1388828901610bf2565b93505060e0610d2488828901610b44565b925050610120610d3688828901610ca0565b9150509295509295909350565b5f602082019050610d565f830184610a03565b92915050565b7f4e487b71000000000000000000000000000000000000000000000000000000005f52602260045260245ffd5b5f6002820490506001821680610da057607f821691505b602082108103610db357610db2610d5c565b5b50919050565b7f496e76616c69642063616e6469646174650000000000000000000000000000005f82015250565b5f610ded6011836109bb565b9150610df882610db9565b602082019050919050565b5f6020820190508181035f830152610e1a81610de1565b9050919050565b7f416c726561647920766f746564000000000000000000000000000000000000005f82015250565b5f610e55600d836109bb565b9150610e6082610e21565b602082019050919050565b5f6020820190508181035f830152610e8281610e49565b9050919050565b5f60029050919050565b5f81905092915050565b5f819050919050565b5f610eb18383610732565b60208301905092915050565b5f602082019050919050565b610ed281610e89565b610edc8184610e93565b9250610ee782610e9d565b805f5b83811015610f17578151610efe8782610ea6565b9650610f0983610ebd565b925050600181019050610eea565b505050505050565b5f60029050919050565b5f81905092915050565b5f819050919050565b5f81905092915050565b610f4f81610e89565b610f598184610f3c565b9250610f6482610e9d565b805f5b83811015610f94578151610f7b8782610ea6565b9650610f8683610ebd565b925050600181019050610f67565b505050505050565b5f610fa78383610f46565b60408301905092915050565b5f602082019050919050565b610fc881610f1f565b610fd28184610f29565b9250610fdd82610f33565b805f5b8381101561100d578151610ff48782610f9c565b9650610fff83610fb3565b925050600181019050610fe0565b505050505050565b5f60019050919050565b5f81905092915050565b5f819050919050565b5f602082019050919050565b61104781611015565b611051818461101f565b925061105c82611029565b805f5b8381101561108c5781516110738782610ea6565b965061107e83611032565b92505060018101905061105f565b505050505050565b5f610120820190506110a85f830187610ec9565b6110b56040830186610fbf565b6110c260c0830185610ec9565b6110d061010083018461103e565b95945050505050565b6110e2816108bf565b81146110ec575f5ffd5b50565b5f815190506110fd816110d9565b92915050565b5f6020828403121561111857611117610836565b5b5f611125848285016110ef565b91505092915050565b7f496e76616c69642070726f6f66000000000000000000000000000000000000005f82015250565b5f611162600d836109bb565b915061116d8261112e565b602082019050919050565b5f6020820190508181035f83015261118f81611156565b9050919050565b7f4e487b71000000000000000000000000000000000000000000000000000000005f52603260045260245ffd5b7f4e6f7420656c696769626c6520746f20766f74650000000000000000000000005f82015250565b5f6111f76014836109bb565b9150611202826111c3565b602082019050919050565b5f6020820190508181035f830152611224816111eb565b9050919050565b7f4e487b71000000000000000000000000000000000000000000000000000000005f52601160045260245ffd5b5f61126282610729565b915061126d83610729565b92508282019050808211156112855761128461122b565b5b92915050565b7f496e76616c696420696e646578000000000000000000000000000000000000005f82015250565b5f6112bf600d836109bb565b91506112ca8261128b565b602082019050919050565b5f6020820190508181035f8301526112ec816112b3565b905091905056fea2646970667358221220866570cf28d9d934c58da5705b85ccc8c18e98305e5df38b6680c761355fe9e364736f6c634300081c0033",
  "linkReferences": {},
  "deployedLinkReferences": {},
  "immutableReferences": {},
  "inputSourceName": "project/contracts/EVoting.sol",
  "buildInfoId": "solc-0_8_28-38b8076c2ec30bf57c5271f28b7cc3d25ae83620"
}