{
  "_format": "hh3-artifact-1",
  "contractName": "EVoting",
  "sourceName": "contracts/EVoting.sol",
  "abi": [
    {
      "inputs": [
        {
          "internalType": "address",
          "name": "_verifier",
          "type": "address"
        }
      ],
      "stateMutability": "nonpayable",
      "type": "constructor"
    },
    {
      "anonymous": false,
      "inputs": [
        {
          "indexed": false,
          "internalType": "string",
          "name": "name",
          "type": "string"
        }
      ],
      "name": "CandidateAdded",
      "type": "event"
    },
    {
      "anonymous": false,
      "inputs": [
        {
          "indexed": false,
          "internalType": "uint256",
          "name": "newValue",
          "type": "uint256"
        }
      ],
      "name": "VariableUpdated",
      "type": "event"
    },
    {
      "anonymous": false,
      "inputs": [
        {
          "indexed": true,
          "internalType": "address",
          "name": "voter",
          "type": "address"
        },
        {
          "indexed": true,
          "internalType": "uint256",
          "name": "candidateIndex",
          "type": "uint256"
        }
      ],
      "name": "VoteCast",
      "type": "event"
    },
    {
      "inputs": [
        {
          "internalType": "string",
          "name": "_name",
          "type": "string"
        }
      ],
      "name": "addCandidate",
      "outputs": [],
      "stateMutability": "nonpayable",
      "type": "function"
    },
    {
      "inputs": [
        {
          "internalType": "uint256",
          "name": "",
          "type": "uint256"
        }
      ],
      "name": "candidates",
      "outputs": [
        {
          "internalType": "string",
          "name": "name",
          "type": "string"
        },
        {
          "internalType": "uint256",
          "name": "voteCount",
          "type": "uint256"
        }
      ],
      "stateMutability": "view",
      "type": "function"
    },
    {
      "inputs": [],
      "name": "getCandidates",
      "outputs": [
        {
          "components": [
            {
              "internalType": "string",
              "name": "name",
              "type": "string"
            },
            {
              "internalType": "uint256",
              "name": "voteCount",
              "type": "uint256"
            }
          ],
          "internalType": "struct EVoting.Candidate[]",
          "name": "",
          "type": "tuple[]"
        }
      ],
      "stateMutability": "view",
      "type": "function"
    },
    {
      "inputs": [],
      "name": "getMyNewVariable",
      "outputs": [
        {
          "internalType": "uint256",
          "name": "",
          "type": "uint256"
        }
      ],
      "stateMutability": "view",
      "type": "function"
    },
    {
      "inputs": [
        {
          "internalType": "uint256",
          "name": "candidateIndex",
          "type": "uint256"
        }
      ],
      "name": "getVoteCount",
      "outputs": [
        {
          "internalType": "uint256",
          "name": "",
          "type": "uint256"
        }
      ],
      "stateMutability": "view",
      "type": "function"
    },
    {
      "inputs": [
        {
          "internalType": "address",
          "name": "",
          "type": "address"
        }
      ],
      "name": "hasVoted",
      "outputs": [
        {
          "internalType": "bool",
          "name": "",
          "type": "bool"
        }
      ],
      "stateMutability": "view",
      "type": "function"
    },
    {
      "inputs": [],
      "name": "owner",
      "outputs": [
        {
          "internalType": "address",
          "name": "",
          "type": "address"
        }
      ],
      "stateMutability": "view",
      "type": "function"
    },
    {
      "inputs": [],
      "name": "updateVariable",
      "outputs": [],
      "stateMutability": "nonpayable",
      "type": "function"
    },
    {
      "inputs": [],
      "name": "verifier",
      "outputs": [
        {
          "internalType": "contract Groth16Verifier",
          "name": "",
          "type": "address"
        }
      ],
      "stateMutability": "view",
      "type": "function"
    },
    {
      "inputs": [
        {
          "internalType": "uint256",
          "name": "candidateIndex",
          "type": "uint256"
        },
        {
          "internalType": "uint256[2]",
          "name": "a",
          "type": "uint256[2]"
        },
        {
          "internalType": "uint256[2][2]",
          "name": "b",
          "type": "uint256[2][2]"
        },
        {
          "internalType": "uint256[2]",
          "name": "c",
          "type": "uint256[2]"
        },
        {
          "internalType": "uint256[1]",
          "name": "input",
          "type": "uint256[1]"
        }
      ],
      "name": "vote",
      "outputs": [],
      "stateMutability": "nonpayable",
      "type": "function"
    }
  ],
  "bytecode": "0x608060405234801561000f575f5ffd5b506040516119c63803806119c683398181016040528101906100319190610115565b8060045f6101000a81548173ffffffffffffffffffffffffffffffffffffffff021916908373ffffffffffffffffffffffffffffffffffffffff1602179055503360015f6101000a81548173ffffffffffffffffffffffffffffffffffffffff021916908373ffffffffffffffffffffffffffffffffffffffff16021790555050610140565b5f5ffd5b5f73ffffffffffffffffffffffffffffffffffffffff82169050919050565b5f6100e4826100bb565b9050919050565b6100f4816100da565b81146100fe575f5ffd5b50565b5f8151905061010f816100eb565b92915050565b5f6020828403121561012a576101296100b7565b5b5f61013784828501610101565b91505092915050565b6118798061014d5f395ff3fe608060405234801561000f575f5ffd5b506004361061009c575f3560e01c80636170e4c9116100645780636170e4c914610159578063678abe42146101635780638da5cb5b1461017f578063b2c2f2e81461019d578063c4191e61146101cd5761009c565b806306a49fce146100a057806309eef43e146100be5780632b7ac3f3146100ee5780633477ee2e1461010c578063462e91ec1461013d575b5f5ffd5b6100a86101eb565b6040516100b591906109b4565b60405180910390f35b6100d860048036038101906100d39190610a3f565b6102e0565b6040516100e59190610a84565b60405180910390f35b6100f66102fd565b6040516101039190610af8565b60405180910390f35b61012660048036038101906101219190610b3b565b610322565b604051610134929190610bbd565b60405180910390f35b61015760048036038101906101529190610d17565b6103d7565b005b61016161046e565b005b61017d60048036038101906101789190610f6c565b6104af565b005b610187610797565b6040516101949190610ff4565b60405180910390f35b6101b760048036038101906101b29190610b3b565b6107bc565b6040516101c4919061100d565b60405180910390f35b6101d561082f565b6040516101e2919061100d565b60405180910390f35b60606003805480602002602001604051908101604052809291908181526020015f905b828210156102d7578382905f5260205f2090600202016040518060400160405290815f8201805461023e90611053565b80601f016020809104026020016040519081016040528092919081815260200182805461026a90611053565b80156102b55780601f1061028c576101008083540402835291602001916102b5565b820191905f5260205f20905b81548152906001019060200180831161029857829003601f168201915b505050505081526020016001820154815250508152602001906001019061020e565b50505050905090565b6002602052805f5260405f205f915054906101000a900460ff1681565b60045f9054906101000a900473ffffffffffffffffffffffffffffffffffffffff1681565b60038181548110610331575f80fd5b905f5260205f2090600202015f91509050805f01805461035090611053565b80601f016020809104026020016040519081016040528092919081815260200182805461037c90611053565b80156103c75780601f1061039e576101008083540402835291602001916103c7565b820191905f5260205f20905b8154815290600101906020018083116103aa57829003601f168201915b5050505050908060010154905082565b600360405180604001604052808381526020015f815250908060018154018082558091505060019003905f5260205f2090600202015f909190919091505f820151815f019081610427919061121a565b506020820151816001015550507ff29562dad1599aea0ebb142466120aab326d5efa8f839df82a9c064bf78e89388160405161046391906112e9565b60405180910390a150565b60025f819055507f9416ddd74ca8a6c97380d08a97cbbc78741721dbd5521df9eee13f31a46236e75f546040516104a5919061100d565b60405180910390a1565b60038054905085106104f6576040517f08c379a00000000000000000000000000000000000000000000000000000000081526004016104ed90611353565b60405180910390fd5b60025f3373ffffffffffffffffffffffffffffffffffffffff1673ffffffffffffffffffffffffffffffffffffffff1681526020019081526020015f205f9054906101000a900460ff1615610580576040517f08c379a0000000000000000000000000000000000000000000000000000000008152600401610577906113bb565b60405180910390fd5b5f60045f9054906101000a900473ffffffffffffffffffffffffffffffffffffffff1673ffffffffffffffffffffffffffffffffffffffff166343753b4d868686866040518563ffffffff1660e01b81526004016105e194939291906115e4565b602060405180830381865afa1580156105fc573d5f5f3e3d5ffd5b505050506040513d601f19601f820116820180604052508101906106209190611653565b905080610662576040517f08c379a0000000000000000000000000000000000000000000000000000000008152600401610659906116c8565b60405180910390fd5b6001825f60018110610677576106766116e6565b5b6020020151146106bc576040517f08c379a00000000000000000000000000000000000000000000000000000000081526004016106b39061175d565b60405180910390fd5b6001600387815481106106d2576106d16116e6565b5b905f5260205f2090600202016001015f8282546106ef91906117a8565b92505081905550600160025f3373ffffffffffffffffffffffffffffffffffffffff1673ffffffffffffffffffffffffffffffffffffffff1681526020019081526020015f205f6101000a81548160ff021916908315150217905550853373ffffffffffffffffffffffffffffffffffffffff167fa36cc2bebb74db33e9f88110a07ef56e1b31b24b4c4f51b54b1664266e29f45b60405160405180910390a3505050505050565b60015f9054906101000a900473ffffffffffffffffffffffffffffffffffffffff1681565b5f6003805490508210610804576040517f08c379a00000000000000000000000000000000000000000000000000000000081526004016107fb90611825565b60405180910390fd5b60038281548110610818576108176116e6565b5b905f5260205f209060020201600101549050919050565b5f5f54905090565b5f81519050919050565b5f82825260208201905092915050565b5f819050602082019050919050565b5f81519050919050565b5f82825260208201905092915050565b8281835e5f83830152505050565b5f601f19601f8301169050919050565b5f6108a282610860565b6108ac818561086a565b93506108bc81856020860161087a565b6108c581610888565b840191505092915050565b5f819050919050565b6108e2816108d0565b82525050565b5f604083015f8301518482035f8601526109028282610898565b915050602083015161091760208601826108d9565b508091505092915050565b5f61092d83836108e8565b905092915050565b5f602082019050919050565b5f61094b82610837565b6109558185610841565b93508360208202850161096785610851565b805f5b858110156109a257848403895281516109838582610922565b945061098e83610935565b925060208a0199505060018101905061096a565b50829750879550505050505092915050565b5f6020820190508181035f8301526109cc8184610941565b905092915050565b5f604051905090565b5f5ffd5b5f5ffd5b5f73ffffffffffffffffffffffffffffffffffffffff82169050919050565b5f610a0e826109e5565b9050919050565b610a1e81610a04565b8114610a28575f5ffd5b50565b5f81359050610a3981610a15565b92915050565b5f60208284031215610a5457610a536109dd565b5b5f610a6184828501610a2b565b91505092915050565b5f8115159050919050565b610a7e81610a6a565b82525050565b5f602082019050610a975f830184610a75565b92915050565b5f819050919050565b5f610ac0610abb610ab6846109e5565b610a9d565b6109e5565b9050919050565b5f610ad182610aa6565b9050919050565b5f610ae282610ac7565b9050919050565b610af281610ad8565b82525050565b5f602082019050610b0b5f830184610ae9565b92915050565b610b1a816108d0565b8114610b24575f5ffd5b50565b5f81359050610b3581610b11565b92915050565b5f60208284031215610b5057610b4f6109dd565b5b5f610b5d84828501610b27565b91505092915050565b5f82825260208201905092915050565b5f610b8082610860565b610b8a8185610b66565b9350610b9a81856020860161087a565b610ba381610888565b840191505092915050565b610bb7816108d0565b82525050565b5f6040820190508181035f830152610bd58185610b76565b9050610be46020830184610bae565b9392505050565b5f5ffd5b5f5ffd5b7f4e487b71000000000000000000000000000000000000000000000000000000005f52604160045260245ffd5b610c2982610888565b810181811067ffffffffffffffff82111715610c4857610c47610bf3565b5b80604052505050565b5f610c5a6109d4565b9050610c668282610c20565b919050565b5f67ffffffffffffffff821115610c8557610c84610bf3565b5b610c8e82610888565b9050602081019050919050565b828183375f83830152505050565b5f610cbb610cb684610c6b565b610c51565b905082815260208101848484011115610cd757610cd6610bef565b5b610ce2848285610c9b565b509392505050565b5f82601f830112610cfe57610cfd610beb565b5b8135610d0e848260208601610ca9565b91505092915050565b5f60208284031215610d2c57610d2b6109dd565b5b5f82013567ffffffffffffffff811115610d4957610d486109e1565b5b610d5584828501610cea565b91505092915050565b5f67ffffffffffffffff821115610d7857610d77610bf3565b5b602082029050919050565b5f5ffd5b5f610d99610d9484610d5e565b610c51565b90508060208402830185811115610db357610db2610d83565b5b835b81811015610ddc5780610dc88882610b27565b845260208401935050602081019050610db5565b5050509392505050565b5f82601f830112610dfa57610df9610beb565b5b6002610e07848285610d87565b91505092915050565b5f67ffffffffffffffff821115610e2a57610e29610bf3565b5b602082029050919050565b5f610e47610e4284610e10565b610c51565b90508060408402830185811115610e6157610e60610d83565b5b835b81811015610e8a5780610e768882610de6565b845260208401935050604081019050610e63565b5050509392505050565b5f82601f830112610ea857610ea7610beb565b5b6002610eb5848285610e35565b91505092915050565b5f67ffffffffffffffff821115610ed857610ed7610bf3565b5b602082029050919050565b5f610ef5610ef084610ebe565b610c51565b90508060208402830185811115610f0f57610f0e610d83565b5b835b81811015610f385780610f248882610b27565b845260208401935050602081019050610f11565b5050509392505050565b5f82601f830112610f5657610f55610beb565b5b6001610f63848285610ee3565b91505092915050565b5f5f5f5f5f6101408688031215610f8657610f856109dd565b5b5f610f9388828901610b27565b9550506020610fa488828901610de6565b9450506060610fb588828901610e94565b93505060e0610fc688828901610de6565b925050610120610fd888828901610f42565b9150509295509295909350565b610fee81610a04565b82525050565b5f6020820190506110075f830184610fe5565b92915050565b5f6020820190506110205f830184610bae565b92915050565b7f4e487b71000000000000000000000000000000000000000000000000000000005f52602260045260245ffd5b5f600282049050600182168061106a57607f821691505b60208210810361107d5761107c611026565b5b50919050565b5f819050815f5260205f209050919050565b5f6020601f8301049050919050565b5f82821b905092915050565b5f600883026110df7fffffffffffffffffffffffffffffffffffffffffffffffffffffffffffffffff826110a4565b6110e986836110a4565b95508019841693508086168417925050509392505050565b5f61111b611116611111846108d0565b610a9d565b6108d0565b9050919050565b5f819050919050565b61113483611101565b61114861114082611122565b8484546110b0565b825550505050565b5f5f905090565b61115f611150565b61116a81848461112b565b505050565b5b8181101561118d576111825f82611157565b600181019050611170565b5050565b601f8211156111d2576111a381611083565b6111ac84611095565b810160208510156111bb578190505b6111cf6111c785611095565b83018261116f565b50505b505050565b5f82821c905092915050565b5f6111f25f19846008026111d7565b1980831691505092915050565b5f61120a83836111e3565b9150826002028217905092915050565b61122382610860565b67ffffffffffffffff81111561123c5761123b610bf3565b5b6112468254611053565b611251828285611191565b5f60209050601f831160018114611282575f8415611270578287015190505b61127a85826111ff565b8655506112e1565b601f19841661129086611083565b5f5b828110156112b757848901518255600182019150602085019450602081019050611292565b868310156112d457848901516112d0601f8916826111e3565b8355505b6001600288020188555050505b505050505050565b5f6020820190508181035f8301526113018184610b76565b905092915050565b7f496e76616c69642063616e6469646174650000000000000000000000000000005f82015250565b5f61133d601183610b66565b915061134882611309565b602082019050919050565b5f6020820190508181035f83015261136a81611331565b9050919050565b7f416c726561647920766f746564000000000000000000000000000000000000005f82015250565b5f6113a5600d83610b66565b91506113b082611371565b602082019050919050565b5f6020820190508181035f8301526113d281611399565b9050919050565b5f60029050919050565b5f81905092915050565b5f819050919050565b5f61140183836108d9565b60208301905092915050565b5f602082019050919050565b611422816113d9565b61142c81846113e3565b9250611437826113ed565b805f5b8381101561146757815161144e87826113f6565b96506114598361140d565b92505060018101905061143a565b505050505050565b5f60029050919050565b5f81905092915050565b5f819050919050565b5f81905092915050565b61149f816113d9565b6114a9818461148c565b92506114b4826113ed565b805f5b838110156114e45781516114cb87826113f6565b96506114d68361140d565b9250506001810190506114b7565b505050505050565b5f6114f78383611496565b60408301905092915050565b5f602082019050919050565b6115188161146f565b6115228184611479565b925061152d82611483565b805f5b8381101561155d57815161154487826114ec565b965061154f83611503565b925050600181019050611530565b505050505050565b5f60019050919050565b5f81905092915050565b5f819050919050565b5f602082019050919050565b61159781611565565b6115a1818461156f565b92506115ac82611579565b805f5b838110156115dc5781516115c387826113f6565b96506115ce83611582565b9250506001810190506115af565b505050505050565b5f610120820190506115f85f830187611419565b611605604083018661150f565b61161260c0830185611419565b61162061010083018461158e565b95945050505050565b61163281610a6a565b811461163c575f5ffd5b50565b5f8151905061164d81611629565b92915050565b5f60208284031215611668576116676109dd565b5b5f6116758482850161163f565b91505092915050565b7f496e76616c69642070726f6f66000000000000000000000000000000000000005f82015250565b5f6116b2600d83610b66565b91506116bd8261167e565b602082019050919050565b5f6020820190508181035f8301526116df816116a6565b9050919050565b7f4e487b71000000000000000000000000000000000000000000000000000000005f52603260045260245ffd5b7f4e6f7420656c696769626c6520746f20766f74650000000000000000000000005f82015250565b5f611747601483610b66565b915061175282611713565b602082019050919050565b5f6020820190508181035f8301526117748161173b565b9050919050565b7f4e487b71000000000000000000000000000000000000000000000000000000005f52601160045260245ffd5b5f6117b2826108d0565b91506117bd836108d0565b92508282019050808211156117d5576117d461177b565b5b92915050565b7f496e76616c696420696e646578000000000000000000000000000000000000005f82015250565b5f61180f600d83610b66565b915061181a826117db565b602082019050919050565b5f6020820190508181035f83015261183c81611803565b905091905056fea2646970667358221220b95d4e0ae45cfff31ad1eba60d9c133367a18b1ff6942fc65433982c549247be64736f6c634300081c0033",
  "linkReferences": {},
  "deployedLinkReferences": {},
  "immutableReferences": {},
  "inputSourceName": "project/contracts/EVoting.sol",
  "buildInfoId": "solc-0_8_28-7bd93984a184205505e8c99541c995bd000a4af9"
}